:020000040000FA
:02000000B42822
:040002000034003492
:080008000E308800101CB32823
:100010001010043088000E10FF308D00C0308C00AE
:100020000E1488013430920470309304E03094044C
:100030000F302002031C2228A001D70A10305702DB
:100040000318D7012008D6000310D60D0310560D53
:100050000B009916931265280000191613126528D3
:10006000000019171313652800009A1794136528C8
:1000700000001A17141365280000181612126528BC
:1000800000009816921265280000181512116528B4
:1000900000009A179413652800001816121265289C
:1000A0000000981692126528000018151211652894
:1000B000000099169312652800001916131265287E
:1000C00000001917131365280000850121308400F2
:1000D0002008840784078407053020020318852838
:1000E000000857020318762818121212840A000812
:1000F000570203187D2898129212840A00085702AA
:100100000318B22818111211B2280930200203185E
:100110009E280008570203188F2899129312840A08
:10012000000857020318962819121312840A0008AF
:1001300057020318B22819131313B22800085702E4
:100140000318A4289A139413840A0008570203186A
:10015000AB281A131413840A000857020318B22894
:100160009A129412A00A090088018B019801990142
:100170009A01FF30920070309300E03094002030FC
:10018000840085015030F0008001840AF00BC428FF
:10019000C400E200E300E400E50004308800FF3022
:1001A0008D00C0308C009001013091008F0107302C
:1001B0008E000E3088001A1410103E308800B801EE
:1001C000B901BA01BB01BC01C301C401C501C6012B
:1001D000C701CE01CF01D001D101D2018801E030A9
:1001E0008B008F308500E03084000008D900880142
:1001F00003108C190314D80C5A1C2D295808031D00
:1002000031295A10D90A5908F0000B3088009E0194
:1002100010308800E0309A008F307F399B00143016
:100220009E004D251E11E0309A008F307F399B00D3
:1002300024309E0070089C009D011A081F391F3A47
:10024000031925294D259A0A1A299E124D251E119A
:100250008801DE01DF01E00131295809031D312940
:100260005A140B3088009E1F3D290E3088008C1ECA
:10027000F7288C120B3088009E0188010730590244
:100280000318692910305E0203185A295908DF0043
:100290008F235E08DD07DB07DC07302510303E25A5
:1002A000DE0A05305E02031CF72810303E251030B0
:1002B000DE04F728DD03DB03DC03302510303E25A8
:1002C000DE035E08113A031DF72820303E25DE01CB
:1002D000F7285908073A031DBA29DF01F7247324C8
:1002E000DF0AE00A7324E00A7324E00AF724732487
:1002F000DF0AE00A7324E00AF7247324DF0AE00A25
:100300007324E00A7324E00AF7247324DF0AE00A66
:100310007324E00AF7247324DF0AE00A7324E00A56
:100320000C3060020318E001E00AFF30B300B400B3
:10033000B600B700C200C30010305E020318AC293B
:100340005E08B500B800C400DE0A08305E02031C77
:10035000B7291030DE04B7295E080F39B500B800A0
:10036000C400DE035E08103A031DB729DE01083021
:100370003E25F7285908083A031DD229F72473248B
:10038000DF0AE00AFF30DB00DC00DD015E08013936
:10039000031DCC290830DD005224DE0AE10A0430B6
:1003A0003E25F7285908093A031DEC2912305E0250
:1003B0000318DE018701213086005E088607860764
:1003C000860717240F391E0017240F391E00172423
:1003D0000F391E00DE0AF72859080A3A031D152AAC
:1003E0005F08E0000330DE00FF30DB00DC01DD01F0
:1003F0007324E00A7324E00AFF30DB01DC01DD0036
:100400007324E00A7324E00ADE0BF429DF0A5F0894
:100410000C305F020318DF01FF30DB00DC00DD0081
:100420005224E10A08303E25F72859080B3A031DEB
:100430003E2A5F08E0000330DE00FF30DB00DC0016
:10044000DD017324E00A7324E00AFF30DB00DC01E5
:10045000DD017324E00A7324E00ADE0B1D2ADF0AA3
:100460005F080C305F020318DF01FF30DB01DC01A5
:10047000DD005224E10A08303E25F72859080C3ADD
:10048000031D672A5F08E0000330DE00FF30DB0158
:10049000DC00DD017324E00A7324E00AFF30DB0096
:1004A000DC01DD007324E00A7324E00ADE0B462A37
:1004B000DF0A5F080C305F020318DF01FF30DB004A
:1004C000DC00DD005224E10A08303E25F7285908F7
:1004D0000D3A031D902A5F08E0000330DE00FF3074
:1004E000DB01DC01DD007324E00A7324E00AFF3045
:1004F000DB00DC005D307324E00A7324E00ADE0BCD
:100500006F2ADF0A5F080C305F020318DF01FF303B
:10051000DB00DC01DD015224E10A08303E25F7282A
:1005200059080E3A031DB92A5F08E0000330DE00C7
:10053000FF30DB01DC01DD007324E00A7324E00AF4
:10054000FF30DB00DC01DD007324E00A7324E00AE5
:10055000DE0B982ADF0A5F080C305F020318DF0108
:10056000FF30DB00DC00DD005224E10A08303E25CC
:10057000F72859080F3A031DE22A5F08E00003300C
:10058000DE00FF30DB00DC01DD017324E00A7324B0
:10059000E00AFF30DB00DC00DD007324E00A732496
:1005A000E00ADE0BC12ADF0A5F080C305F02031885
:1005B000DF01FF30DB01DC00DD015224E10A0830FD
:1005C0003E25F7285908103A031DFA2AFF30DB00B0
:1005D000DC01DD017324E00AFF30DB00DC00DD001C
:1005E0007324FF30DB01DC01DD005224E10A04301A
:1005F0003E25F7285908113A031D122BFF30DB0066
:10060000DC01DD017324E00AFF30DB01DC01DD00E9
:100610007324FF30DB00DC00DD015224E10A0430EA
:100620003E25F7285908123A031D2A2BFF30DB001C
:10063000DC01DD007324E00AFF30DB00DC00DD00BC
:100640007324FF30DB01DC00DD015224E10A0430B9
:100650003E25F7285908133A031D422BFF30DB00D3
:10066000DC00DD007324E00AFF30DB00DC01DD018B
:100670007324FF30DB01DC01DD005224E10A043089
:100680003E25F7285908143A031D5A2BFF30DB008A
:10069000DC01DD007324E00AFF30DB00DC00DD005C
:1006A0007324FF30DB01DC01DD005224E10A043059
:1006B0003E25F7285908153A031D722BFF30DB0041
:1006C000DC00DD007324E00AFF30DB01DC00DD012B
:1006D0007324FF30DB00DC01DD015224E10A043029
:1006E0003E25F7281D30590203187F2B5908DF00DB
:1006F0001630DF028F233025FF303E25F7285908BA
:100700001D3A031D8C2BCF2373245224E10AE00AE7
:10071000DF0A04303E25F728D901F7288E2B073051
:100720005F020318DF015F08031D9B2BDB01DC0167
:100730001030DD0008005F08013A031DA42BDB0127
:100740001030DC00DD0108005F08023A031DAD2B0C
:100750001030DB00DC01DD0108005F08033A031DF7
:10076000B62B1030DB00DC00DD0108005F08043A26
:10077000031DBF2B1030DB00DC01DD0008005F082B
:10078000053A031DC92B1030DB000430DC00DD010D
:1007900008001030DB000430DC00DD0008006630AB
:1007A0005F020318DF0111305F020318DD2BFF30F9
:1007B000DB005F08DC00DD01080022305F02031867
:1007C000E92B11305F02103CDB00FF30DC00DD0163
:1007D000080033305F020318F42BDB01FF30DC002C
:1007E00022305F02DD00080044305F020318002C55
:1007F000DB0133305F02103CDC00FF30DD0008001D
:1008000055305F0203180B2C44305F02DB00DC0123
:10081000FF30DD00080066305F0203180800FF307B
:10082000DB00DC0155305F02103CDD0008000830C1
:10083000E6006710621867146219E709621BE7098E
:10084000E21BE709031067180314E50CE40CE30C42
:10085000E20CE60B192C62080800DB01DD01DC016B
:100860000800033061020318E1016108031D3F2CF9
:100870005B08B3005C08B4005D08B50008006108BF
:10088000013A031D4A2C5B08B6005C08B7005D08FE
:10089000B80008005B08C2005C08C3005D08C40023
:1008A00008000800033061020318E1016108031D1C
:1008B000602C5B08C2005C08C3005D08C40008002F
:1008C0006108013A031D6B2C5B08B6005C08B70099
:1008D0005D08B80008005B08B3005C08B4005D0860
:1008E000B500080008000C3060020318E001600841
:1008F000031D812C5B08A1005C08A2005D08A30019
:1009000008006008013A031D8C2C5B08A4005C08F9
:10091000A5005D08A60008006008023A031D972C98
:100920005B08A7005C08A8005D08A9000800600833
:10093000033A031DA22C5B08AA005C08AB005D080B
:10094000AC0008006008043A031DAD2C5B08AD0044
:100950005C08AE005D08AF0008006008053A031DA2
:10096000B82C5B08B9005C08BA005D08BB00080041
:100970006008063A031DC32C5B08CB005C08CC0062
:100980005D08CD0008006008073A031DCE2C5B0807
:10099000C8005C08C9005D08CA0008006008083A81
:1009A000031DD92C5B08C5005C08C6005D08C700A4
:1009B00008006008093A031DE42C5B08BF005C08CE
:1009C000C0005D08C100080060080A3A031DEF2C52
:1009D0005B08BC005C08BD005D08BE0008005B0849
:1009E000B0005C08B1005D08B200080008000530E6
:1009F0005F020318DF015F08031D032DFF30DB00DA
:100A0000DC01DD0108005F08013A031D0D2DFF30F8
:100A1000DB000430DC00DD0108005F08023A031D42
:100A2000162DDB01DC01FF30DD0008005F08033A12
:100A3000031D1F2DFF30DB00DC01DD000800DB01A2
:100A4000FF30DC00DD010800870121308600003026
:100A50001E001E001E004D300602031C272D08003C
:100A60008701213086005B081E005C081E005D08BF
:100A70001E004D300602031C332D0800F0000E301E
:100A800088008C120B30880070099D009C01913009
:100A90009F0090309E00880108008B1355309F0006
:100AA000AA309F009E148B17080050006500740048
:100AB0006500720020005300680061006200690058
:100AC0006E006F002000320030004A0075006E009A
:100AD0003200300031003900200063006F006400F4
:100AE0006500200066006F0072002000540077004F
:100AF00069006E006B006C006500200054007700F8
:100B000069006E006B0069006500200049007200FA
:100B10006F006E0020004200610064006700650005
:100B200020005600350020007700770077002E0067
:100B3000770069007200650032007700690072007A
:0C0B400065002E006F00720067002100AD
:101FC000FF00FF00FF00FF00FF00FF00FF00FF0019
:101FD000FF00FF00FF00FF00FF00FF00FF00FF0009
:101FE000FF00FF00FF00FF00FF00FF00FF00FF00F9
:101FF000FF00FF00FF00FF00FF00FF00FF00FF00E9
:020000040001F9
:02000E00FC3FB5
:02001000FC37BB
:020012009F3F0E
:02001400FF1FCC
:02001600FF3FAA
:00000001FF
